:100000000C9446000C946F000C946F000C946F00DD
:100010000C946F000C946F000C946B040C946F00A4
:100020000C946F000C946F000C946F000C943D0ABC
:100030000C946F000C946F000C949C090C946F004E
:100040000C946F000C946F000C946F000C946F0074
:100050000C946F000C946F000C946F000C945F0A6A
:100060000C946F000C946F00EC04D004A4049B0467
:10007000A1044A053F05BF0B9F0A9F0ABC0BC80B92
:10008000B80BCF0BCB0BD30B8B0B5D0B11241FBE0F
:10009000CFEFD8E0DEBFCDBF14BE0FB6F894A89561
:1000A00080916000886180936000109260000FBEB4
:1000B00011E0A0E0B1E0E0ECF1E202C005900D92A9
:1000C000A031B107D9F727E0A0E1B1E001C01D924E
:1000D000A13AB207E1F70E94A20D0C94DE100C9435
:1000E000000080911C01882379F080911D0190E02F
:1000F0009C01220F331F820F931F880F991F880FB7
:10010000991F8D5D9E4F089580E090E0089580E0F6
:100110000E94190A10921C010895CF93FC01C0811E
:10012000CB010E94CA068536C8F490911B01A92F05
:10013000B0E01097E1F080912307C81789F0E4E25E
:10014000F7E0AD5DB84F03C08191C81749F0AE1715
:10015000BF07D1F7CC939F5F90931B01CF91089578
:10016000C093230781E080931B01CF910895A3E200
:10017000B7E0F0CF1F93CF93DF9380E00E94190A7E
:1001800060E080E00E94E4050E9443060E94AA0607
:10019000C3E2D1E010E018831986CE010E94660CFC
:1001A0009B878A871F5F2C961038A9F780911A01C8
:1001B000813049F00E94E90563E483E40E94E4058C
:1001C00081E080931A010E94920691E08F3F08F42B
:1001D00090E0980F892F90E00196092E000CAA0B51
:1001E000BB0B8093140190931501A0931601B0935B
:1001F00017010E94920691E08F3F08F490E0980F5B
:10020000892F90E00196092E000CAA0BBB0B80935E
:10021000100190931101A0931201B0931301DF918B
:10022000CF911F91089580911A01813009F493C0F4
:1002300008F440C08430F0F540916607509167079C
:100240006091680770916907209118013091190138
:100250008091140190911501A0911601B0911701A0
:10026000820F931FA11DB11D84179507A607B7071D
:1002700008F4D6C0409166075091670760916807FF
:10028000709169078091100190911101A091120164
:10029000B091130181509F4FAF4FBF4F8417950707
:1002A000A607B70780F020911B012130A1F180E063
:1002B0000C94190A8823F1F260E080E00E94E405C2
:1002C00010921A01D7CF8091660790916707A0918D
:1002D0006807B09169078093100190931101A09372
:1002E0001201B093130180911B01882309F47FC090
:1002F0000E94920620911B01622F0E94BF0DE92FE0
:10030000F0E0ED5DF84F808180931D0181E08093E6
:100310001C01213061F69091230785E0989F212DE3
:100320001124892F821B8695820F8295869587706E
:100330002FE3829F901911249F5F292F237080E162
:10034000289F90011124892F82958F70822B9C7099
:10035000892B0C94190A40916607509167076091A8
:100360006807709169078091140190911501A0911F
:100370001601B091170181509F4FAF4FBF4F8417A7
:100380009507A607B70708F075CF8091660790918B
:100390006707A0916807B091690780931401909353
:1003A0001501A0931601B09317010E94920680FFD9
:1003B00051C080911A01823049F00E94E90560E045
:1003C00086E40E94E40582E080931A010E9492066E
:1003D00091E0803A08F490E020E6929F800D11248D
:1003E00090E00196909319018093180143CF0E94E9
:1003F00092068F7780931D0190E0FC01EE0FFF1FA6
:10040000E80FF91FEE0FFF1FEE0FFF1FED5DFE4F10
:1004100080818093230781E080931B0121E076CFC8
:100420008091660790916707A0916807B09169076E
:100430008093140190931501A0931601B0931701B6
:100440000E94E90563E483E40E94E40581E080936F
:100450001A0110CF80911A01833009F4B7CF0E949E
:10046000E90566E480E00E94E40583E080931A01D8
:10047000ADCFCF9390911A01981769F0C82F8230B1
:1004800099F0833051F08130B1F060E080E00E945B
:10049000E405C0931A01CF9108950E94E90566E42E
:1004A00080E00E94E405F5CF0E94E90560E086E463
:1004B0000E94E405EECF0E94E90563E483E40E9414
:1004C000E405E7CF80911A01813059F108F18430B9
:1004D000F8F4409166075091670760916807709142
:1004E00069072091180130911901809114019091B0
:1004F0001501A0911601B0911701820F931FA11D44
:10050000B11D84179507A607B70708F455C00895CD
:100510008823E9F360E080E00E94E40510921A016C
:100520000895409166075091670760916807709140
:1005300069078091140190911501A0911601B09165
:10054000170181509F4FAF4FBF4F84179507A607E4
:10055000B707E8F68091660790916707A091680752
:10056000B09169078093140190931501A09316012F
:10057000B09317010E94920680FF38C080911A0143
:10058000823049F00E94E90560E086E40E94E405BB
:1005900082E080931A010E94920691E0803A08F46A
:1005A00090E020E6929F800D112490E001969093B8
:1005B000190180931801089580916607909167074B
:1005C000A0916807B0916907809314019093150179
:1005D000A0931601B09317010E94E90563E483E438
:1005E0000E94E40581E080931A01089580911A0128
:1005F000833089F20E94E90566E480E00E94E40508
:1006000083E080931A01C7CF409166075091670736
:1006100060916807709169078091100190911101B4
:10062000A0911201B091130181509F4FAF4FBF4F66
:1006300084179507A607B70720F580916607909164
:100640006707A0916807B0916907809310019093A4
:100650001101A0931201B093130180911B01882313
:1006600089F00E94920660911B010E94BF0DE92F44
:10067000F0E0ED5DF84F808180931D0181E0809373
:100680001C0108950E9492068F7780931D0190E0CF
:10069000FC01EE0FFF1FE80FF91FEE0FFF1FEE0F1B
:1006A000FF1FED5DFE4F80818093230781E08093E3
:1006B0001B01E4CF80911B01813019F080E00C9484
:1006C000190A9091230785E0989F212D1124892FE5
:1006D000821B8695820F8295869587702FE3829F75
:1006E000901911249F5F292F237080E1289F90018A
:1006F0001124892F82958F70822B9C70892B0C94EA
:10070000190A089580E090E008950895DF92EF922D
:10071000FF920F931F93CF93DF93F89414B817B8F9
:100720001AB815B818B81BB8529A5A9A14BC85E072
:1007300085BD8FEF87BD82E080936E0010928000B0
:10074000109281002FE83BE03093890020938800CD
:1007500080936F005398239891EA9093B000809310
:10076000B1001092B4001092B3008BE080BF83E020
:1007700080937F0086E080937C0083E880937A00FA
:1007800080917A00806480937A0080917A0086FD5F
:10079000FCCF10927C0083EA80937A0081E0809302
:1007A0007B0081E090E00E9474108F3F11F08093F5
:1007B000660010926A07C1E0C0934307C0938707A1
:1007C0001092610710929B0780E990E00E947410DC
:1007D0008093600780916007887311F0C093600771
:1007E00010928B0710928A078FEF90E09093890701
:1007F0008093880710926607109267071092680727
:100800001092690781E08093220182E49FE0909337
:100810009A078093990780EB90E00E947410C82F8C
:1008200081EB90E00E9474102C2F30E0382B309335
:100830009D0720939C0785E090E00E9474108093B0
:10084000A00789E090E00E94741080938C078CE0F0
:1008500090E00E94741080939E0784E190E00E94D3
:10086000741080939F075BE6E52E57E0F52E04E4B5
:1008700017E0C0E2D0E0CE010E947410D82ECE0165
:1008800001960E9474102D2D30E0322F2227282B44
:10089000F701219331937F01CE01C0960E9474101D
:1008A000D82ECE01C1960E9474102D2D30E0322F2B
:1008B0002227282BF801219331938F012296CC33E4
:1008C000D105C9F67894DF91CF911F910F91FF90D8
:1008D000EF90DF9008951F920F920FB60F921124A0
:1008E0008F930FB6F894A8958091600088618093EB
:1008F0006000109260000FBE8F910F900FBE0F909E
:100900001F9018953C01EB0110E099249A9484E023
:10091000C82E96E0A92E23E8B22E38E1D32E49E264
:10092000E42EE0912201F0E0E730F105D0F7EC5C35
:10093000FF4F0C94DF0D112309F405C1C092220171
:1009400011E0FE010995EDCF80916A07811105C183
:10095000F894A0927C00B0927A0080917A00806432
:1009600080937A0080917A0086FDFCCF8091780098
:100970009091790078948B3AE2E09E070CF0E6C003
:100980008938F2E09F070CF0EFC0873692400CF4F4
:10099000E4C0559A549A3B9A3A9A3D983C98C1CFF4
:1009A000559854983B9A3A9A3D983C98EFECF7E06A
:1009B0003197F1F700C00000559854983B983A9849
:1009C0003D983C98FFEF21EE84E0F15020408040BC
:1009D000E1F700C00000A5CFF89480B7877F80BF03
:1009E00080917A008F7780937A0014B817B81AB87C
:1009F00015B818B81BB80FB6F894A895D092600037
:100A00000FBEE0926000809160008064809360007F
:100A100083B7817F846083BFF89483B7816083BF8D
:100A20007894889583B78E7F83BF789410926A07F5
:100A3000529A5A9A80917A00806880937A0087E56A
:100A400092E00197F1F700C0000080B7886180BF95
:100A5000559A549A3B9A3A9A3D9A3C9AEFE1FEE4B1
:100A60003197F1F700C0000080916A0781115BC0E7
:100A7000559854983B983A983D983C9852CF80911D
:100A80002001811125C01092B3001092B400109281
:100A9000210147CF4899ECCF559A54983B983A9802
:100AA0003D983C988FEC97E00197F1F700C000006B
:100AB000559854983B983A983D983C989FEFE1EEB2
:100AC000F4E09150E040F040E1F700C0000029CF91
:100AD0009091200180912101981709F422CF8091F3
:100AE00020018093210180912001813009F450C0C0
:100AF000809120011092B3009092B4008230D9F11D
:100B00009092B3009092B4008FE295E70197F1F7CD
:100B100000C0000080919F0790919E079093B300C2
:100B20008093B400FECE559A549A3B983A983D98DB
:100B30003C98FFEF20E782E0F15020408040E1F751
:100B400000C0000095CFF3010995F8CE5598549850
:100B50003B9A3A9A3D983C98E4CE559A549A3B98E1
:100B60003A983D983C98DDCE559854983B983A98E1
:100B70003D9A3C9AD6CEEFE2F5E73197F1F700C007
:100B8000000080918C071092B3008093B400C9CE0E
:100B90009092B3001092B4008FE295E70197F1F7BD
:100BA00000C000008091A0078093B3001092B400B1
:100BB000B8CE07C0EFECF7E03197F1F700C00000C6
:100BC00001970097B9F708958093B3006093B4003C
:100BD00008958FEF8093B3008093B4008FE090E08E
:100BE000EFECF7E03197F1F700C000000197C1F793
:100BF000089580916A0781111EC0F89487E0809360
:100C00007C0083E880937A0080917A0080648093EE
:100C10007A0080917A0086FDFCCF809178009091D7
:100C2000790010927C0023EA20937A0021E020933F
:100C30007B00789408958FEF9FEF089580916A0765
:100C400081111EC0F89488EC80937C0087E8809323
:100C50007A0080917A00806480937A0080917A0093
:100C600086FDFCCF809178009091790010927C00F5
:100C700023EA20937A0021E020937B007894089562
:100C80008FEF9FEF08950F931F93CF93DF93E0E0D3
:100C9000F0E080E003EA11E0D6E0C3E8A1E0B0E0D4
:100CA00060E870E0F894D0937C00C0937A00909153
:100CB0007A00906490937A0090917A0096FDFCCF30
:100CC0002091780030917900217090917A009064A1
:100CD00090937A0090917A0096FDFCCF4091780035
:100CE0005091790010927C0000937A0010937B0061
:100CF00078944170241303C06150710999F622233E
:100D000039F09D010E2E01C0220F0A94EAF7822BC2
:100D10003196E830F10509F0C3CFDF91CF911F91F3
:100D20000F91089580910001982F990F990F990FB5
:100D3000892790911F0121E0290F20931F01282F5F
:100D400022952695277082279695969589278093D8
:100D50000001089580930001089580916A07811130
:100D600016C0F89486E080937C0083E880937A0034
:100D700080917A00806480937A0080917A0086FD69
:100D8000FCCF8091780090917900789408958FEF4E
:100D90009FEF08952F923F924F925F926F927F92B2
:100DA0008F929F92AF92BF92CF92DF92EF92FF927B
:100DB0000F931F93CF93DF9300D000D000D0CDB717
:100DC000DEB71C01DC0112960D90BC91A02DBE83F4
:100DD000AD83A438E3E0BE070CF0CBC0809144079C
:100DE000909145078A179B0708F48CC1009146072C
:100DF000109147070A171B0708F422C20091480701
:100E0000109149070A171B0708F428C200914A07E6
:100E100010914B070A171B0708F424C200914C07D6
:100E200010914D070A171B0708F425C200914E07C1
:100E300010914F070A171B0708F4E6C100915007ED
:100E4000109151070A171B0708F41EC200915207A0
:100E5000109153070A171B0708F41FC2009154078B
:100E6000109155070A171B0708F425C20091560771
:100E7000109157070A171B0708F426C2009158075C
:100E8000109159070A171B0708F422C200915A074C
:100E900010915B070A171B0708F423C200915C0737
:100EA00010915D070A171B0708F424C200915E0722
:100EB00010915F070A171B0708F425C280E090E035
:100EC000A0EDB0E489839A83AB83BC832CE0E22E4F
:100ED000F12CF701EE0FFF1FEC5BF84F8081918141
:100EE000B801681B790B80E090E00E941D0F9B0108
:100EF000AC010E94090E6B017C01AD81BE81BD0178
:100F0000BB0F880B990B0E941F0F4B015C01B801AE
:100F100080E090E00E941D0F2B013C0129813A8165
:100F20004B815C81C701B6010E94AB0F9B01AC01F4
:100F3000C301B2010E94080E9B01AC01C501B401BE
:100F40000E94080E20E030E040E251E40E94AB0F26
:100F50000E94E70E8B01C701B6010E94E70EAB01AC
:100F6000BC01C801BA010E94CB0D6983ED81FE81ED
:100F7000CBC0DC01CD90DC9080916B0790916C0729
:100F80008C159D0508F4DFC0BFEFB98300916D0794
:100F900010916E070C151D0508F456C100916F07DE
:100FA000109170070C151D0508F453C100917107CD
:100FB000109172070C151D0508F458C100917307B4
:100FC000109174070C151D0508F459C1009175079F
:100FD000109176070C151D0508F4B7C0009177072E
:100FE000109178070C151D0508F452C1009179077E
:100FF00010917A070C151D0508F453C100917B0769
:1010000010917C070C151D0508F450C100917D0757
:1010100010917E070C151D0508F451C100917F0742
:10102000109180070C151D0508F456C10091810729
:10103000109182070C151D0508F457C10091830714
:10104000109184070C151D0508F458C100918507FF
:10105000109186070C151D0508F459C11AE5B981D0
:10106000BF3F09F459C1ED81FE81BF01FF0F880B1D
:10107000990B0E941F0F4B015C01F9816F2F70E0EB
:1010800080E090E00E941D0F6B017C01A50194019E
:1010900060E070E081E694E40E94080E9B01AC01E0
:1010A000C701B6010E94AB0F6B017C01612F70E09C
:1010B00080E090E00E941D0F2B013C0120E030E019
:1010C0004FE254E4C501B4010E94080E9B01AC013B
:1010D000C301B2010E94AB0F9B01AC01C701B60175
:1010E0000E94090E20E030E048E453E40E94750EAF
:1010F00020E030E044E052E40E94090E0E94EE0E2F
:10110000862F08C01982FD01ED3BF2400CF007C1AB
:1011100089818F5D26960FB6F894DEBF0FBECDBFD6
:10112000DF91CF911F910F91FF90EF90DF90CF90C3
:10113000BF90AF909F908F907F906F905F904F90F7
:101140003F902F90089581E2E5CFF5E03F2EE5E056
:10115000F0E0EE0FFF1FE759F84F80819181B80151
:10116000681B790B80E090E00E941D0F9B01AC0191
:101170000E94090E4B015C01B601DD0C880B990B36
:101180000E941F0F2B013C01B80180E090E00E94FB
:101190001D0F6B017C01632D70E080E090E00E94E8
:1011A0001D0F20E030E040E05FE30E94AB0F20E045
:1011B00030E0A9010E94090EA50194010E94AB0F25
:1011C0009B01AC01C701B6010E94080E9B01AC0156
:1011D000C301B2010E94080E20E030E040E251E479
:1011E0000E94AB0F0E94E70E8B01C501B4010E9463
:1011F000E70EAB01BC01C801BA010E94CB0D162F4E
:101200006F3F09F02CCF84CF65E085E090E07C0152
:10121000F1E0EF1AF10870E080E090E00E941D0F0D
:1012200020E030E040E05FE30E94AB0F20E030E0E0
:10123000A9010E94090E69837A838B839C8349CE1E
:1012400061E081E090E0E3CF33243394E1E0F0E02B
:1012500080CF82E0382EE2E0F0E07BCF62E082E0F7
:1012600090E0D5CF63E083E090E0D1CFB3E03B2EB8
:10127000E3E0F0E06ECF64E084E090E0C8CFA4E06B
:101280003A2EE4E0F0E065CF66E086E090E0BFCF84
:10129000E6E03E2EE6E0F0E05CCF67E087E090E03D
:1012A000B6CF77E0372EE7E0F0E053CF68E0362E98
:1012B000E8E0F0E04ECF68E088E090E0A8CF59E0A9
:1012C000352EE9E0F0E045CF69E089E090E09FCF7E
:1012D0006AE08AE090E09BCF4AE0342EEAE0F0E05A
:1012E00038CF6BE08BE090E092CF3BE0332EEBE029
:1012F000F0E02FCF6CE08CE090E089CF2CE0322E34
:10130000ECE0F0E026CF6DE08DE090E080CF9DE056
:10131000392EEDE0F0E01DCF81E2810FFBCED1014F
:10132000CD90DC9080916B0790916C078C159D059A
:1013300008F02CCE10E093CE1F920F920FB60F92B2
:1013400011242F933F934F935F936F937F938F93CA
:101350009F93AF93BF93EF93FF9320918A073091B0
:101360008B078091880790918907820F931F909334
:101370008B0780938A078FEF90E090938907809383
:1013800088078FEF87BD8091660790916707A091CE
:101390006807B09169070196A11DB11D809366078A
:1013A00090936707A0936807B093690780916A07D5
:1013B00081110FC08091990790919A0720918A0717
:1013C00030918B078217930720F48091220184309B
:1013D00089F0FF91EF91BF91AF919F918F917F9194
:1013E0006F915F914F913F912F910F900FBE0F9092
:1013F0001F901895E0910301F09104010995009761
:1014000041F30E941F0D81110AC00E9464109C01CB
:101410003327309389072093880787BDDACFE0917F
:101420000101F0910201099510928B0710928A0731
:10143000D0CF80FF11C0559A81FF11C0549A82FF0E
:1014400011C03B9A83FF11C03A9A84FF11C03D9AA4
:1014500085FD11C03C980895559881FDEFCF5498B3
:1014600082FDEFCF3B9883FDEFCF3A9884FDEFCF1D
:101470003D9885FFEFCF3C9A08951F920F920FB6CB
:101480000F9211248F939F931092810010928500E8
:101490001092840081E08093430780938707109225
:1014A0006A0710927C0093EA90937A0080937B0005
:1014B0009F918F910F900FBE0F901F9018951F92C4
:1014C0000F920FB60F9211242F933F934F935F9378
:1014D0006F937F938F939F93AF93BF93CF93DF933C
:1014E000EF93FF93209184003091850041E0409379
:1014F0006A07809143078823A9F110928500109212
:1015000084004093810010929B07109243078091C2
:1015100087078823A1F080917A0086FDFCCF809117
:10152000780090917900909365078093640781E03B
:1015300080937C0093EA90937A0080937B00FF91E4
:10154000EF91DF91CF91BF91AF919F918F917F915B
:101550006F915F914F913F912F910F900FBE0F9020
:101560001F901895C901875891098437994008F050
:101570004FC026583109A4EFB0E00E94E50DAA271C
:10158000BB27883008F47BC04093430780918707CE
:10159000811152C080916107E82FF0E0E357F84FC6
:1015A00090919B0790838F5F809361078C3039F611
:1015B000109281001092850010928400409387075A
:1015C00010926A07C0919707D09198078DE897E02D
:1015D0000E94660CC817D90709F0B1CF8091960711
:1015E00087FF61C098E7980F933030F053982398A5
:1015F0001092B4001092B30090E0FC01E058F109A1
:10160000EB30F10508F09BCFE55CFF4F0C94DF0D4C
:10161000109281001092850010928400409343073D
:101620004093870710926A0710927C0083EA8093A8
:101630007A0040937B0083CF80917A0086FDFCCFB7
:10164000809178009091790090936307809362076E
:1016500010927C0083EA80937A0081E080937B0083
:1016600090919B079923D1F01092810010928500F0
:10167000109284008093870710926A0760CF21E060
:1016800030E0F90102C0EE0FFF1F8A95E2F7CF01AB
:1016900090919B07892B80939B0751CF10928707CE
:1016A000109261074CCFE0910501F091060162E6CE
:1016B00077E08DE897E0099542CF80918D078230E1
:1016C00009F4DDC008F4BAC0833009F4C6C0843020
:1016D00009F0B1C08091200190919307833009F403
:1016E000E3C0809192071092210123E02093200112
:1016F00080939E0790939F0780912201863009F482
:101700001ECF539A239A1092B4001092B30086E031
:101710008093220114CF80912201863099F0539A50
:10172000239A1092B4001092B300559854983B98A5
:101730003A983D983C98109220011092210186E041
:101740008093220181E090E09C0100908D0702C00F
:10175000220F331F0A94E2F780919C0790919D0716
:1017600082239323892B09F086C010922001E7CEB3
:1017700081E080932201E3CEE0E0F0E009958091E2
:101780006E008D7F80936E0016BCE0E0F0E7099557
:1017900010922201D4CE82E080932201D0CE85E047
:1017A00080932201CCCE80912201833009F4C7CEF0
:1017B00080912201843009F4C2CE539A239A109268
:1017C000B4001092B30083E080932201B8CE8091E0
:1017D0002201863009F0B3CE60919C0780EB90E047
:1017E0000E947C1060919D0781EB90E00E947C102C
:1017F0006091A00785E090E00E947C1060918C07CA
:1018000089E090E00E947C1060919E078CE090E05F
:101810000E947C1060919F0784E190E00E947C1000
:10182000539823981092B4001092B30081E08093F3
:10183000220180918D0781115FCF81CE882339F2FB
:101840008130C9F780918E0790918F0790939D0703
:1018500080939C07109220014FCF8091200182300D
:1018600071F1809191071092210192E090932001F3
:1018700080938C0741CF81E08093200160CE8091DE
:101880002001813051F0809190071092210191E068
:10189000909320018093A0072FCF80919007909183
:1018A000A0078913F2CF28CF80919F07981319CFF3
:1018B0008091920720919E07821315CF1DCF8091B2
:1018C000910790918C078913CECF16CFFC018081B0
:1018D0002FEF3FEF2827022E2295207F2025032E71
:1018E000322F22952F700226269532272327220F8A
:1018F000220F220F202581812827022E2295207F6A
:101900002025032E322F22952F700226269532276E
:101910002327220F220F220F202582812827022E23
:101920002295207F2025032E322F22952F7002260C
:10193000269532272327220F220F220F202583816D
:101940002827022E2295207F2025032E322F229534
:101950002F700226269532272327220F220F220FCF
:10196000202584812827022E2295207F2025032EE2
:10197000322F22952F700226269532272327220FF9
:10198000220F220F202585812827022E2295207FD5
:101990002025032E322F22952F70022626953227DE
:1019A0002327220F220F220F202586812827022E8F
:1019B0002295207F2025032E322F22952F7002267C
:1019C000269532272327220F220F220F20258781D9
:1019D0002827022E2295207F2025032E322F2295A4
:1019E0002F700226269532272327220F220F220F3F
:1019F000202580852827022E2295207F2025032E52
:101A0000322F22952F700226269532272327220F68
:101A1000220F220F20254185C9018427082E829597
:101A2000807F8025092E982F82958F7008268695B5
:101A300098278927880F880F880F802508950FB66B
:101A4000F894A4B1209160072A2B24B921E03091A9
:101A50006007203029F0000025B1232B25B904C0F0
:101A600000000000000000C00000000000003095F1
:101A700025B1232325B92EEA2A95F1F72BEE30B7AD
:101A800035FF0AC0A4B930916007309525B12323F2
:101A900025B90FBE80E0089500002A9581F721E066
:101AA00030916007203029F0000025B1232B25B9A3
:101AB00004C000000000000000C0000000000000A2
:101AC000309525B1232325B9000024E52A95F1F7A7
:101AD000FC018CE0619170E0660F771F61607260BD
:101AE0009AE041E050E09A0126233723232B3091DE
:101AF0006007203029F0000025B1232B25B904C050
:101B000000000000000000C0000000000000309550
:101B100025B1232325B9000021E52A95F1F7440FCB
:101B2000551F9A9501F78A95A9F620B7206120BF25
:101B3000A4B930916007309525B1232325B90FBE94
:101B400081E008950E94860381E790E0909304016C
:101B50008093030187E890E0909302018093010154
:101B60008DE890E0909306018093050163E171E0B8
:101B70008AEB90E00E94820480E090E00895991B37
:101B800079E004C0991F961708F0961B881F7A9574
:101B9000C9F78095089597FB072E16F4009407D097
:101BA00077FD09D00E94F40D07FC05D03EF4909516
:101BB00081959F4F0895709561957F4F0895EE0F21
:101BC000FF1F0590F491E02D0994A29FB001B39FEF
:101BD000C001A39F700D811D1124911DB29F700D36
:101BE000811D1124911D0895AA1BBB1B51E107C043
:101BF000AA1FBB1FA617B70710F0A61BB70B881F9D
:101C0000991F5A95A9F780959095BC01CD0108952B
:101C10005058BB27AA270E94200E0C94710F0E94D7
:101C2000630F38F00E946A0F20F039F49F3F19F4D7
:101C300026F40C94600F0EF4E095E7FB0C945A0F19
:101C4000E92F0E94820F58F3BA17620773078407BF
:101C5000950720F079F4A6F50C94A40F0EF4E09506
:101C60000B2EBA2FA02D0B01B90190010C01CA0156
:101C7000A0011124FF27591B99F0593F50F4503E01
:101C800068F11A16F040A22F232F342F4427585FF3
:101C9000F3CF469537952795A795F0405395C9F70B
:101CA0007EF41F16BA0B620B730B840BBAF09150C3
:101CB000A1F0FF0FBB1F661F771F881FC2F70EC062
:101CC000BA0F621F731F841F48F487957795679535
:101CD000B795F7959E3F08F0B0CF9395880F08F021
:101CE0009927EE0F9795879508950E94890E0C9479
:101CF000710F0E946A0F58F00E94630F40F029F4A0
:101D00005F3F29F00C945A0F51110C94A50F0C94BD
:101D1000600F0E94820F68F39923B1F3552391F36A
:101D2000951B550BBB27AA2762177307840738F04A
:101D30009F5F5F4F220F331F441FAA1FA9F335D0A7
:101D40000E2E3AF0E0E832D091505040E695001C5B
:101D5000CAF72BD0FE2F29D0660F771F881FBB1F15
:101D6000261737074807AB07B0E809F0BB0B802DF3
:101D7000BF01FF2793585F4F3AF09E3F510578F01F
:101D80000C945A0F0C94A50F5F3FE4F3983ED4F3E4
:101D9000869577956795B795F7959F5FC9F7880FF3
:101DA000911D9695879597F90895E1E0660F771F45
:101DB000881FBB1F621773078407BA0720F0621BD6
:101DC000730B840BBA0BEE1F88F7E09508950E9401
:101DD000EE0E6894B1110C94A50F08950E948A0F1D
:101DE00088F09F5798F0B92F9927B751B0F0E1F0DC
:101DF000660F771F881F991F1AF0BA95C9F714C08C
:101E0000B13091F00E94A40FB1E008950C94A40F9A
:101E1000672F782F8827B85F39F0B93FCCF38695C4
:101E200077956795B395D9F73EF490958095709521
:101E300061957F4F8F4F9F4F0895E89409C097FB9E
:101E40003EF490958095709561957F4F8F4F9F4F91
:101E50009923A9F0F92F96E9BB279395F6958795D5
:101E600077956795B795F111F8CFFAF4BB0F11F498
:101E700060FF1BC06F5F7F4F8F4F9F4F16C088233F
:101E800011F096E911C0772321F09EE8872F762F75
:101E900005C0662371F096E8862F70E060E02AF0B6
:101EA0009A95660F771F881FDAF7880F96958795A2
:101EB00097F9089597F99F6780E870E060E00895CA
:101EC0009FEF80EC089500240A9416161706180652
:101ED0000906089500240A9412161306140605062E
:101EE0000895092E0394000C11F4882352F0BB0FBF
:101EF00040F4BF2B11F460FF04C06F5F7F4F8F4F22
:101F00009F4F089557FD9058440F551F59F05F3F5C
:101F100071F04795880F97FB991F61F09F3F79F00B
:101F200087950895121613061406551FF2CF46958D
:101F3000F1DF08C0161617061806991FF1CF86950F
:101F40007105610508940895E894BB2766277727F3
:101F5000CB0197F908950E94BE0F0C94710F0E9457
:101F6000630F38F00E946A0F20F0952311F00C9453
:101F70005A0F0C94600F11240C94A50F0E94820F2D
:101F800070F3959FC1F3950F50E0551F629FF001CC
:101F9000729FBB27F00DB11D639FAA27F00DB11DE5
:101FA000AA1F649F6627B00DA11D661F829F22276E
:101FB000B00DA11D621F739FB00DA11D621F839FF5
:101FC000A00D611D221F749F3327A00D611D231FCB
:101FD000849F600D211D822F762F6A2F11249F5719
:101FE00050409AF0F1F088234AF0EE0FFF1FBB1F1C
:101FF000661F771F881F91505040A9F79E3F5105DB
:1020000080F00C945A0F0C94A50F5F3FE4F3983EB8
:10201000D4F3869577956795B795F795E7959F5F84
:10202000C1F7FE2B880F911D9695879597F9089516
:102030008F929F92AF92BF92CF92DF92EF92FF92D8
:10204000CF93DF93EC01688179818A819B8161154F
:1020500071058105910521F464E279ED8BE597E046
:102060002DE133EF41E050E00E948A1049015A010E
:102070009B01AC01A7EAB1E40E94A9106B017C01AD
:10208000ACEEB4EFA50194010E94B710DC01CB01C6
:102090008C0D9D1DAE1DBF1DB7FF03C00197A1098B
:1020A000B04888839983AA83BB839F77DF91CF91C0
:1020B000FF90EF90DF90CF90BF90AF909F908F9068
:1020C00008950E941810089587E091E00E9418106A
:1020D0000895A0E0B0E08093070190930801A093D9
:1020E0000901B0930A010895F999FECF92BD81BD0F
:1020F000F89A992780B50895262FF999FECF1FBA2F
:1021000092BD81BD20BD0FB6F894FA9AF99A0FBE20
:1021100001960895052E97FB1EF400940E94A110CD
:1021200057FD07D00E94BC1007FC03D04EF40C945E
:10213000A11050954095309521953F4F4F4F5F4FDF
:10214000089590958095709561957F4F8F4F9F4F23
:1021500008950E94E50DA59F900DB49F900DA49F3A
:10216000800D911D11240895B7FF0C94A9100E94B1
:10217000A910821B930B0895A1E21A2EAA1BBB1B68
:10218000FD010DC0AA1FBB1FEE1FFF1FA217B30743
:10219000E407F50720F0A21BB30BE40BF50B661F59
:1021A000771F881F991F1A9469F76095709580951D
:1021B00090959B01AC01BD01CF010895F894FFCF2C
:1021C000AA85038203810301000000FFFFA08000B5
:00000001FF
